:10000000FC2F00308A000408840A820700343E3442
:100010004134413441343E34003442347F3440343E
:10002000003472344934493449344634213441343B
:1000300049344D3433341834143412347F3410348A
:10004000273445344534453439343C344A34493412
:1000500049343134413421341134093407343634CD
:1000600049344934493436344634493449342934DE
:100070001E34003400340034003400347F3408343B
:10008000083408347F34263449344934493432340E
:100090007C3408340434043478343C344034403400
:1000A00020347C344434643454344C3444343E344A
:1000B0004134413441343E34003442347F3440349E
:1000C000003472344934493449344634213441349B
:1000D00049344D3433341834143412347F341034EA
:1000E000273445344534453439343C344A34493472
:1000F000493431344134213411340934073436342D
:10010000493449344934363446344934493429343D
:100110001E34003400340034003400347F3408349A
:10012000083408347F34263449344934493432346D
:100130007C3408340434043478343C34403440345F
:0E01400020347C344434643454344C3444341D
:1004F40078348312031305110330F000F00B802AC3
:100504008312031385110800831203138515033026
:10051400F000F00B8B2A8312031305150800F40076
:100524007B22831203133E08022300300223740843
:100534000223862208009E2A8312031385150330A2
:10054400F000F00BA32A831203138511A92A0800D3
:10055400F300F201731CB22A7008F1007108F2076B
:100564000310F00D0310F30C7308031DAC2A72087A
:100574000800AE3091228D30912214309122203027
:10058400912200309122A1309122C8309122DA3098
:10059400912212309122813091229F309122AF30EA
:1005A40091220800F701083077020318080021306F
:1005B4009122003091227F309122223091227708BB
:1005C40091227708013E91227B22831203133E0875
:1005D400022340300223F601803076020318FC2AFD
:1005E400003002230130F5007508F60780307602EA
:1005F400031CF22A86220130F5007508F707D52A74
:10060400F200F301083073020318262B7208F1007C
:100614007303FF3A073E013E112B0310F10CFF3E1A
:10062400031D0F2B711C1A2B8312031305151D2B8D
:100634008312031305119D220130F1007108F307A1
:1006440008307302031C082B8316031305159D221F
:100654000330F100F10B2C2B831603130511080052
:100664008312031323082204210420040319772B83
:10067400A901A90AA31B4C2B0130A8000310A00D4B
:10068400A10DA20DA30DA80B402B0130A800280832
:10069400A9073C2B23082702031D5A2B22082602F4
:1006A400031D5A2B21082502031D5A2B200824025E
:1006B400031C6A2B2008A4022108031C210FA50295
:1006C4002208031C220FA6022308031C230FA702DF
:1006D40001300310A30CA20CA10CA00CFF3E031DBF
:1006E4006B2B0130A902031D4C2B2708A3002608FD
:1006F400A2002508A1002408A00008000030FC0086
:100704000030FB000030FA000030F9007308720476
:10071400710470040319D52BFD01FD0AF31BA02BF2
:100724000130F8000310F00DF10DF20DF30DF80B8C
:10073400942B0130F8007808FD07902B0130F80065
:100744000310F90DFA0DFB0DFC0DF80BA22B730829
:100754007702031DB72B72087602031DB72B7108AD
:100764007502031DB72B70087402031CC82B700894
:10077400F4027108031C710FF5027208031C720F56
:10078400F6027308031C730FF70279140130031087
:10079400F30CF20CF10CF00CFF3E031DC92B0130DD
:1007A400FD02031DA02B7C08F3007B08F2007A08ED
:1007B400F1007908F0000800F9002030912201309E
:1007C4009122213091220D30F7007708F00076084D
:1007D400AA2291220D30F7007708F0007608AA22A9
:1007E400093E912222309122750891227508013E1A
:1007F40091227B22831203133E08022340300223FA
:10080400FC0105307C020318502C0530F7007708F2
:10081400F0007908AA227C07513E84000120F800E8
:100824007808FD00FB01FA017D1F1C2CC030F70085
:100834007708FB07FD1E222C3030F7007708FB07F2
:100844007D1E282C0C30F7007708FB07FD1D2E2C8D
:100854000330F7007708FB077D1D342CC030F70008
:100864007708FA07FD1C3A2C3030F7007708FA07AE
:100874007D1C402C0C30F7007708FA077A08022315
:100884007B0802237A0802237B0802230130F70045
:100894007708FC0705307C02031C072C86222030D5
:1008A40091220030912208000730831203139F0025
:1008B4003330831603138500F83081008312031349
:1008C40090010B3097009C309600403095008515C0
:1008D40005150B3083120313AC002630AB005D30DA
:1008E400AA00AA0B732CAB0B732CAC0B732C00005B
:1008F400BB220B3083120313AC002630AB005D30F7
:10090400AA00AA0B832CAB0B832CAC0B832C00000A
:10091400D42283120313B801B80AAE01AF013230F6
:10092400AA002A08B0008E018F01101481010B1156
:1009340030080319AC2C0B1DA62C0130AE0703188C
:10094400AF0A0030AF070B110C1D9A2C0C110130AB
:10095400B0029A2C10102E08AA002F08AB00AC018C
:10096400AD0108300310AA0DAB0DAC0DAD0DFF3E6B
:10097400031DB42C01082A07BA002B0803182B0FF7
:100984000310BB002C0803182C0F0310BC002D0807
:1009940003182D0ABD000030F3000F30F20042307E
:1009A400F1004030F0003D08F7003C08F6003B0839
:1009B400F5003A08F4008023700883120313AA0098
:1009C4002A08B7000030A3000030A2000030A100C4
:1009D4000A30A0000030F3000130F2008630F1004C
:1009E400A030F0003D08F7003C08F6003B08F50095
:1009F4003A08F4008023730883120313A7007208D3
:100A0400A6007108A5007008A40032238312031302
:100A14002008AA002A08B6000030A3000030A20073
:100A24000030A1000A30A0000030F3000030F200D2
:100A34002730F1001030F0003D08F7003C08F600C4
:100A44003B08F5003A08F40080237308831203136B
:100A5400A7007208A6007108A5007008A40032233C
:100A6400831203132008AA002A08B5000030A3004B
:100A74000030A2000030A1000A30A0000030F300D2
:100A84000030F2000330F100E830F0003D08F700D8
:100A94003C08F6003B08F5003A08F400802373088C
:100AA40083120313A7007208A6007108A50070083A
:100AB400A4003223831203132008AA002A08B400D6
:100AC4000030A3000030A2000030A1000A30A000D2
:100AD4000030F3000030F2000030F1006430F00028
:100AE4003D08F7003C08F6003B08F5003A08F4001E
:100AF4008023730883120313A7007208A6007108E9
:100B0400A5007008A4003223831203132008AA004E
:100B14002A08B3000030A3000030A2000030A10076
:100B24000A30A0000030F3000030F2000030F10081
:100B34000A30F0003D08F7003C08F6003B08F500D9
:100B44003A08F4008023730883120313A700720881
:100B5400A6007108A5007008A400322383120313B1
:100B64002008AA002A08B2000030A3000030A20026
:100B74000030A1000A30A0003D08A7003C08A600F0
:100B84003B08A5003A08A40032238312031320086B
:100B9400AA002A08B1000730AA002A08B9000230C6
:100BA4003902031C112E3908FF3E313E84008313A1
:100BB4000008031DEA2D38080319EA2DF501F50A8A
:100BC4003903FF3A073EAA002A08F6000A30DE235A
:100BD400831203133908FF3E313E84008313000857
:100BE4000319F82D38080319F82DB8013808031D26
:100BF400092EF501F50A3903FF3A073EAA002A082F
:100C0400F6003908FF3E313E84000008DE2301303F
:100C140083120313B902023039020318D52DF501EA
:100C2400F50A0630AA002A08F6003108DE23F50189
:100C3400F50A083083120313AA002A08F6000B30C1
:100C4400DE23F501F50A093083120313AA002A08EA
:100C5400F6000F30DE2383120313B801B80A3D08EF
:100C6400031D662E3C08031D662E03303B02031D44
:100C74003F2EE8303A02031D3F2E0318662E3D082E
:100C8400F3003C08F2003B08F1003A08F0000030A1
:100C9400F7000F30F6004230F5004030F4008023B6
:100CA400730883120313BD007208BC007108BB00F3
:100CB4007008BA000530AA002A08F5000830AB0015
:100CC4002B08F6000E308C2E831203133D08F3001C
:100CD4003C08F2003B08F1003A08F0003B30F70012
:100CE4009A30F600CA30F5000030F400802373080F
:100CF40083120313BD007208BC007108BB007008A6
:100D0400BA000530AA002A08F5000830AB002B0809
:100D1400F6000D30DE230030F3000F30F2004230D5
:100D2400F1004030F000831203133D08F7003C0843
:100D3400F6003B08F5003A08F4008023700883129B
:100D44000313AA002A08B7000030A3000030A20051
:100D54000030A1000A30A0000030F3000130F2009E
:100D64008630F100A030F0003D08F7003C08F600A2
:100D74003B08F5003A08F400802373088312031338
:100D8400A7007208A6007108A5007008A400322309
:100D9400831203132008AA002A08B6000030A30017
:100DA4000030A2000030A1000A30A0000030F3009F
:100DB4000030F2002730F1001030F0003D08F70059
:100DC4003C08F6003B08F5003A08F4008023730859
:100DD40083120313A7007208A6007108A500700807
:100DE400A4003223831203132008AA002A08B500A2
:100DF4000030A3000030A2000030A1000A30A0009F
:100E04000030F3000030F2000330F100E830F0006D
:100E14003D08F7003C08F6003B08F5003A08F400EA
:100E24008023730883120313A7007208A6007108B5
:100E3400A5007008A4003223831203132008AA001B
:100E44002A08B4000030A3000030A2000030A10042
:100E54000A30A0000030F3000030F2000030F1004E
:100E64006430F0003D08F7003C08F6003B08F5004C
:100E74003A08F4008023730883120313A70072084E
:100E8400A6007108A5007008A4003223831203137E
:100E94002008AA002A08B3000030A3000030A200F2
:100EA4000030A1000A30A0000030F3000030F2004E
:100EB4000030F1000A30F0003D08F7003C08F6006D
:100EC4003B08F5003A08F4008023730883120313E7
:100ED400A7007208A6007108A5007008A4003223B8
:100EE400831203132008AA002A08B2000030A300CA
:100EF4000030A2000030A1000A30A0003D08A70085
:100F04003C08A6003B08A5003A08A400322383123B
:100F140003132008AA002A08B1000730AA002A08EF
:100F2400B90002303902031CD72F3908FF3E313E85
:100F3400840083130008031DAE2F38080319AE2F55
:100F44000530AA002A08F5003903FF3A073EAB0032
:100F54002B08F6000A30DE23831203133908FF3E00
:100F6400313E8400831300080319BC2F3808031989
:100F7400BC2FB8013808031DCF2F0530AA002A085A
:100F8400F5003903FF3A073EAB002B08F600390899
:100F9400FF3E313E84000008DE2301308312031338
:100FA400B902023039020318972F0530AA002A0823
:100FB400F5000630AB002B08F6003108DE230530BF
:100FC40083120313AA002A08F5000930AB002B088A
:100FD400F6000C30DE23153083120313AC004B30C3
:100FE400AB00BE30AA00AA0BF52FAB0BF52FAC0B50
:0C0FF400F52F8B2C7A22BE008301562CB6
:02400E000AFFA7
:00000001FF
